{
    "contractName": "LandPriceOracle",
    "abi": [
        {
            "inputs": [],
            "stateMutability": "nonpayable",
            "type": "constructor"
        },
        {
            "anonymous": false,
            "inputs": [
                {
                    "indexed": true,
                    "internalType": "bytes32",
                    "name": "id",
                    "type": "bytes32"
                }
            ],
            "name": "ChainlinkCancelled",
            "type": "event"
        },
        {
            "anonymous": false,
            "inputs": [
                {
                    "indexed": true,
                    "internalType": "bytes32",
                    "name": "id",
                    "type": "bytes32"
                }
            ],
            "name": "ChainlinkFulfilled",
            "type": "event"
        },
        {
            "anonymous": false,
            "inputs": [
                {
                    "indexed": true,
                    "internalType": "bytes32",
                    "name": "id",
                    "type": "bytes32"
                }
            ],
            "name": "ChainlinkRequested",
            "type": "event"
        },
        {
            "anonymous": false,
            "inputs": [
                {
                    "indexed": true,
                    "internalType": "address",
                    "name": "previousOwner",
                    "type": "address"
                },
                {
                    "indexed": true,
                    "internalType": "address",
                    "name": "newOwner",
                    "type": "address"
                }
            ],
            "name": "OwnershipTransferred",
            "type": "event"
        },
        {
            "inputs": [],
            "name": "OilpricePerEth",
            "outputs": [
                {
                    "internalType": "uint256",
                    "name": "",
                    "type": "uint256"
                }
            ],
            "stateMutability": "nonpayable",
            "type": "function"
        },
        {
            "inputs": [
                {
                    "internalType": "bytes32",
                    "name": "_requestId",
                    "type": "bytes32"
                },
                {
                    "internalType": "uint256",
                    "name": "_landPriceInMana",
                    "type": "uint256"
                }
            ],
            "name": "fulfill",
            "outputs": [],
            "stateMutability": "nonpayable",
            "type": "function"
        },
        {
            "inputs": [],
            "name": "getLatestManaPrice",
            "outputs": [
                {
                    "internalType": "uint256",
                    "name": "",
                    "type": "uint256"
                }
            ],
            "stateMutability": "view",
            "type": "function"
        },
        {
            "inputs": [],
            "name": "landPriceInMana",
            "outputs": [
                {
                    "internalType": "uint256",
                    "name": "",
                    "type": "uint256"
                }
            ],
            "stateMutability": "view",
            "type": "function"
        },
        {
            "inputs": [
                {
                    "internalType": "address",
                    "name": "",
                    "type": "address"
                }
            ],
            "name": "oracleWhitelist",
            "outputs": [
                {
                    "internalType": "bool",
                    "name": "",
                    "type": "bool"
                }
            ],
            "stateMutability": "view",
            "type": "function"
        },
        {
            "inputs": [],
            "name": "owner",
            "outputs": [
                {
                    "internalType": "address",
                    "name": "",
                    "type": "address"
                }
            ],
            "stateMutability": "view",
            "type": "function"
        },
        {
            "inputs": [],
            "name": "renounceOwnership",
            "outputs": [],
            "stateMutability": "nonpayable",
            "type": "function"
        },
        {
            "inputs": [],
            "name": "requestLandData",
            "outputs": [
                {
                    "internalType": "bytes32",
                    "name": "requestId",
                    "type": "bytes32"
                }
            ],
            "stateMutability": "nonpayable",
            "type": "function"
        },
        {
            "inputs": [
                {
                    "internalType": "address",
                    "name": "_address",
                    "type": "address"
                }
            ],
            "name": "setOracleWhitelist",
            "outputs": [],
            "stateMutability": "nonpayable",
            "type": "function"
        },
        {
            "inputs": [
                {
                    "internalType": "address",
                    "name": "newOwner",
                    "type": "address"
                }
            ],
            "name": "transferOwnership",
            "outputs": [],
            "stateMutability": "nonpayable",
            "type": "function"
        }
    ],
    "bytecode": "6080604052600160045534801561001557600080fd5b5060006100296001600160e01b0361010916565b600680546001600160a01b0319166001600160a01b038316908117909155604051919250906000907f8be0079c531659141344cd1fd0a4f28419497f9722a3daafe3b4186f6b6457e0908290a350600780546001600160a01b031916731b93d8e109cfedcbb3cc74ed761de286d57715111790556100ae6001600160e01b0361010d16565b600a80546001600160a01b031916732f90a6d021db21e1b2a077c5a37b3c7e75d15b7e1790557f3239666139616131336266313436383738386237636334613530306134356238600b5567016345785d8a0000600c556101bb565b3390565b61019773c89bd4e1632d3a43cb03aaad5262cbe4038bc5716001600160a01b03166338cc48316040518163ffffffff1660e01b815260040160206040518083038186803b15801561015d57600080fd5b505afa158015610171573d6000803e3d6000fd5b505050506040513d602081101561018757600080fd5b50516001600160e01b0361019916565b565b600280546001600160a01b0319166001600160a01b0392909216919091179055565b610e91806101ca6000396000f3fe608060405234801561001057600080fd5b506004361061009e5760003560e01c80637bc74da9116100665780637bc74da914610118578063824c58e0146101205780638da5cb5b14610128578063a465ff121461014c578063f2fde38b146101865761009e565b806303c2e78e146100a35780630bd26a33146100cb5780634357855e146100e55780635483ac5114610108578063715018a614610110575b600080fd5b6100c9600480360360208110156100b957600080fd5b50356001600160a01b03166101ac565b005b6100d3610244565b60408051918252519081900360200190f35b6100c9600480360360408110156100fb57600080fd5b508035906020013561024a565b6100d36102eb565b6100c961030a565b6100d36103c8565b6100d361049d565b61013061052d565b604080516001600160a01b039092168252519081900360200190f35b6101726004803603602081101561016257600080fd5b50356001600160a01b031661053c565b604080519115158252519081900360200190f35b6100c96004803603602081101561019c57600080fd5b50356001600160a01b0316610551565b6101b4610666565b6001600160a01b03166101c561052d565b6001600160a01b031614610220576040805162461bcd60e51b815260206004820181905260248201527f4f776e61626c653a2063616c6c6572206973206e6f7420746865206f776e6572604482015290519081900360640190fd5b6001600160a01b03166000908152600d60205260409020805460ff19166001179055565b60095481565b60008281526005602052604090205482906001600160a01b031633146102a15760405162461bcd60e51b8152600401808060200182810382526028815260200180610e346028913960400191505060405180910390fd5b60008181526005602052604080822080546001600160a01b03191690555182917f7cc135e0cebb02c3480ae5d74d377283180a2601f8f644edf7987b009316c63a91a25060095550565b60006102f56103c8565b50600061030061049d565b6009540291505090565b610312610666565b6001600160a01b031661032361052d565b6001600160a01b03161461037e576040805162461bcd60e51b815260206004820181905260248201527f4f776e61626c653a2063616c6c6572206973206e6f7420746865206f776e6572604482015290519081900360640190fd5b6006546040516000916001600160a01b0316907f8be0079c531659141344cd1fd0a4f28419497f9722a3daafe3b4186f6b6457e0908390a3600680546001600160a01b0319169055565b60006103d2610d4b565b600b546103e790306321abc2af60e11b61066a565b905061042f6040518060400160405280600381526020016219d95d60ea1b815250604051806080016040528060508152602001610de46050913983919063ffffffff61069516565b61047c604051806040016040528060048152602001630e0c2e8d60e31b8152506040518060400160405280600481526020016336b2b0b760e11b815250836106959092919063ffffffff16565b600a54600c54610497916001600160a01b03169083906106c4565b91505090565b600080600080600080600760009054906101000a90046001600160a01b03166001600160a01b031663feaf968c6040518163ffffffff1660e01b815260040160a06040518083038186803b1580156104f457600080fd5b505afa158015610508573d6000803e3d6000fd5b505050506040513d60a081101561051e57600080fd5b50602001519550505050505090565b6006546001600160a01b031690565b600d6020526000908152604090205460ff1681565b610559610666565b6001600160a01b031661056a61052d565b6001600160a01b0316146105c5576040805162461bcd60e51b815260206004820181905260248201527f4f776e61626c653a2063616c6c6572206973206e6f7420746865206f776e6572604482015290519081900360640190fd5b6001600160a01b03811661060a5760405162461bcd60e51b8152600401808060200182810382526026815260200180610d9b6026913960400191505060405180910390fd5b6006546040516001600160a01b038084169216907f8be0079c531659141344cd1fd0a4f28419497f9722a3daafe3b4186f6b6457e090600090a3600680546001600160a01b0319166001600160a01b0392909216919091179055565b3390565b610672610d4b565b61067a610d4b565b61068c8186868663ffffffff61089b16565b95945050505050565b60808301516106aa908363ffffffff6108d816565b60808301516106bf908263ffffffff6108d816565b505050565b6004546040805130606090811b60208084019190915260348084018690528451808503909101815260549093018452825192810192909220908601939093526000838152600590915281812080546001600160a01b0319166001600160a01b038816179055905182917fb5e6e01e79f91267dc17b4e6314d5d4d03593d2ceee0fbb452b750bd70ea5af991a26002546001600160a01b0316634000aea0858461076c876108f5565b6040518463ffffffff1660e01b815260040180846001600160a01b03166001600160a01b0316815260200183815260200180602001828103825283818151815260200191508051906020019080838360005b838110156107d65781810151838201526020016107be565b50505050905090810190601f1680156108035780820380516001836020036101000a031916815260200191505b50945050505050602060405180830381600087803b15801561082457600080fd5b505af1158015610838573d6000803e3d6000fd5b505050506040513d602081101561084e57600080fd5b505161088b5760405162461bcd60e51b8152600401808060200182810382526023815260200180610dc16023913960400191505060405180910390fd5b6004805460010190559392505050565b6108a3610d4b565b6108b38560800151610100610a1e565b50509183526001600160a01b031660208301526001600160e01b031916604082015290565b6108e58260038351610a5e565b6106bf828263ffffffff610b6e16565b8051602080830151604080850151606086810151608088015151935160006024820181815260448301829052606483018a90526001600160a01b03881660848401526001600160e01b0319861660a484015260c48301849052600160e48401819052610100610104850190815288516101248601528851969b6320214ca360e11b9b949a8b9a91999098909796939591949361014401918501908083838e5b838110156109ac578181015183820152602001610994565b50505050905090810190601f1680156109d95780820380516001836020036101000a031916815260200191505b5060408051601f198184030181529190526020810180516001600160e01b03166001600160e01b0319909d169c909c17909b5250989950505050505050505050919050565b610a26610d80565b6020820615610a3b5760208206602003820191505b506020808301829052604080518085526000815283019091019052815b92915050565b60178111610a8557610a7f8360e0600585901b16831763ffffffff610b8f16565b506106bf565b60ff8111610abb57610aa8836018611fe0600586901b161763ffffffff610b8f16565b50610a7f8382600163ffffffff610ba716565b61ffff8111610af257610adf836019611fe0600586901b161763ffffffff610b8f16565b50610a7f8382600263ffffffff610ba716565b63ffffffff8111610b2b57610b1883601a611fe0600586901b161763ffffffff610b8f16565b50610a7f8382600463ffffffff610ba716565b67ffffffffffffffff81116106bf57610b5583601b611fe0600586901b161763ffffffff610b8f16565b50610b688382600863ffffffff610ba716565b50505050565b610b76610d80565b610b8883846000015151848551610bc8565b9392505050565b610b97610d80565b610b888384600001515184610c74565b610baf610d80565b610bc0848560000151518585610cbf565b949350505050565b610bd0610d80565b8251821115610bde57600080fd5b84602001518285011115610c0857610c0885610c008760200151878601610d1d565b600202610d34565b600080865180518760208301019350808887011115610c275787860182525b505050602084015b60208410610c4e5780518252601f199093019260209182019101610c2f565b51815160001960208690036101000a019081169019919091161790525083949350505050565b610c7c610d80565b83602001518310610c9857610c98848560200151600202610d34565b835180516020858301018481535080851415610cb5576001810182525b5093949350505050565b610cc7610d80565b84602001518483011115610ce457610ce485858401600202610d34565b60006001836101000a039050855183868201018583198251161781525080518487011115610d125783860181525b509495945050505050565b600081831115610d2e575081610a58565b50919050565b8151610d408383610a1e565b50610b688382610b6e565b6040805160a081018252600080825260208201819052918101829052606081019190915260808101610d7b610d80565b905290565b60405180604001604052806060815260200160008152509056fe4f776e61626c653a206e6577206f776e657220697320746865207a65726f2061646472657373756e61626c6520746f207472616e73666572416e6443616c6c20746f206f7261636c6568747470733a2f2f77686973706572696e672d6265796f6e642d32363433342e6865726f6b756170702e636f6d2f646563656e7472616c616e642f6f72646572732f70726963652d6d65616e2f373530536f75726365206d75737420626520746865206f7261636c65206f66207468652072657175657374a2646970667358221220c8dd32a96d07c30c643d1b30deb56da8d2af76df60175c8a8665c26927f814cc64736f6c63430006000033",
    "sourcePath": "/Users/grape404/Desktop/Development/sol/LandOracle/contracts/LandPriceOracle.sol",
    "compiler": {
        "name": "solc",
        "version": "0.6.0+commit.26b70077"
    },
    "functionHashes": {
        "OilpricePerEth()": "5483ac51",
        "fulfill(bytes32,uint256)": "4357855e",
        "getLatestManaPrice()": "824c58e0",
        "landPriceInMana()": "0bd26a33",
        "oracleWhitelist(address)": "a465ff12",
        "owner()": "8da5cb5b",
        "renounceOwnership()": "715018a6",
        "requestLandData()": "7bc74da9",
        "setOracleWhitelist(address)": "03c2e78e",
        "transferOwnership(address)": "f2fde38b"
    },
    "gasEstimates": {
        "creation": {
            "codeDepositCost": "745800",
            "executionCost": "infinite",
            "totalCost": "infinite"
        },
        "external": {
            "OilpricePerEth()": "infinite",
            "fulfill(bytes32,uint256)": "infinite",
            "getLatestManaPrice()": "infinite",
            "landPriceInMana()": "1021",
            "oracleWhitelist(address)": "1202",
            "owner()": "1081",
            "renounceOwnership()": "24341",
            "requestLandData()": "infinite",
            "setOracleWhitelist(address)": "22043",
            "transferOwnership(address)": "infinite"
        }
    }
}