{
    "contractName": "MyContract",
    "abi": [
        {
            "inputs": [
                {
                    "internalType": "address",
                    "name": "_link",
                    "type": "address"
                }
            ],
            "stateMutability": "nonpayable",
            "type": "constructor"
        },
        {
            "anonymous": false,
            "inputs": [
                {
                    "indexed": true,
                    "internalType": "bytes32",
                    "name": "id",
                    "type": "bytes32"
                }
            ],
            "name": "ChainlinkCancelled",
            "type": "event"
        },
        {
            "anonymous": false,
            "inputs": [
                {
                    "indexed": true,
                    "internalType": "bytes32",
                    "name": "id",
                    "type": "bytes32"
                }
            ],
            "name": "ChainlinkFulfilled",
            "type": "event"
        },
        {
            "anonymous": false,
            "inputs": [
                {
                    "indexed": true,
                    "internalType": "bytes32",
                    "name": "id",
                    "type": "bytes32"
                }
            ],
            "name": "ChainlinkRequested",
            "type": "event"
        },
        {
            "anonymous": false,
            "inputs": [
                {
                    "indexed": true,
                    "internalType": "address",
                    "name": "previousOwner",
                    "type": "address"
                },
                {
                    "indexed": true,
                    "internalType": "address",
                    "name": "newOwner",
                    "type": "address"
                }
            ],
            "name": "OwnershipTransferred",
            "type": "event"
        },
        {
            "inputs": [
                {
                    "internalType": "bytes32",
                    "name": "_requestId",
                    "type": "bytes32"
                },
                {
                    "internalType": "uint256",
                    "name": "_payment",
                    "type": "uint256"
                },
                {
                    "internalType": "bytes4",
                    "name": "_callbackFunctionId",
                    "type": "bytes4"
                },
                {
                    "internalType": "uint256",
                    "name": "_expiration",
                    "type": "uint256"
                }
            ],
            "name": "cancelRequest",
            "outputs": [],
            "stateMutability": "nonpayable",
            "type": "function"
        },
        {
            "inputs": [
                {
                    "internalType": "address",
                    "name": "_oracle",
                    "type": "address"
                },
                {
                    "internalType": "bytes32",
                    "name": "_jobId",
                    "type": "bytes32"
                },
                {
                    "internalType": "uint256",
                    "name": "_payment",
                    "type": "uint256"
                },
                {
                    "internalType": "string",
                    "name": "_url",
                    "type": "string"
                },
                {
                    "internalType": "string",
                    "name": "_path",
                    "type": "string"
                },
                {
                    "internalType": "int256",
                    "name": "_times",
                    "type": "int256"
                }
            ],
            "name": "createRequestTo",
            "outputs": [
                {
                    "internalType": "bytes32",
                    "name": "requestId",
                    "type": "bytes32"
                }
            ],
            "stateMutability": "nonpayable",
            "type": "function"
        },
        {
            "inputs": [],
            "name": "data",
            "outputs": [
                {
                    "internalType": "uint256",
                    "name": "",
                    "type": "uint256"
                }
            ],
            "stateMutability": "view",
            "type": "function"
        },
        {
            "inputs": [
                {
                    "internalType": "bytes32",
                    "name": "_requestId",
                    "type": "bytes32"
                },
                {
                    "internalType": "uint256",
                    "name": "_data",
                    "type": "uint256"
                }
            ],
            "name": "fulfill",
            "outputs": [],
            "stateMutability": "nonpayable",
            "type": "function"
        },
        {
            "inputs": [],
            "name": "getChainlinkToken",
            "outputs": [
                {
                    "internalType": "address",
                    "name": "",
                    "type": "address"
                }
            ],
            "stateMutability": "view",
            "type": "function"
        },
        {
            "inputs": [],
            "name": "owner",
            "outputs": [
                {
                    "internalType": "address",
                    "name": "",
                    "type": "address"
                }
            ],
            "stateMutability": "view",
            "type": "function"
        },
        {
            "inputs": [],
            "name": "renounceOwnership",
            "outputs": [],
            "stateMutability": "nonpayable",
            "type": "function"
        },
        {
            "inputs": [
                {
                    "internalType": "address",
                    "name": "newOwner",
                    "type": "address"
                }
            ],
            "name": "transferOwnership",
            "outputs": [],
            "stateMutability": "nonpayable",
            "type": "function"
        },
        {
            "inputs": [],
            "name": "withdrawLink",
            "outputs": [],
            "stateMutability": "nonpayable",
            "type": "function"
        }
    ],
    "bytecode": "608060405260016004553480156200001657600080fd5b506040516200142138038062001421833981810160405260208110156200003c57600080fd5b50516000620000536001600160e01b03620000e416565b600680546001600160a01b0319166001600160a01b038316908117909155604051919250906000907f8be0079c531659141344cd1fd0a4f28419497f9722a3daafe3b4186f6b6457e0908290a3506001600160a01b038116620000c957620000c36001600160e01b03620000e816565b620000dd565b620000dd816001600160e01b036200017916565b506200019b565b3390565b6200017773c89bd4e1632d3a43cb03aaad5262cbe4038bc5716001600160a01b03166338cc48316040518163ffffffff1660e01b815260040160206040518083038186803b1580156200013a57600080fd5b505afa1580156200014f573d6000803e3d6000fd5b505050506040513d60208110156200016657600080fd5b50516001600160e01b036200017916565b565b600280546001600160a01b0319166001600160a01b0392909216919091179055565b61127680620001ab6000396000f3fe608060405234801561001057600080fd5b50600436106100935760003560e01c806373d4a13a1161006657806373d4a13a146102465780638da5cb5b1461024e5780638dc654a214610256578063ec65d0f81461025e578063f2fde38b1461029757610093565b8063165d35e11461009857806316ef7f1a146100bc5780634357855e14610219578063715018a61461023e575b600080fd5b6100a06102bd565b604080516001600160a01b039092168252519081900360200190f35b610207600480360360c08110156100d257600080fd5b6001600160a01b03823516916020810135916040820135919081019060808101606082013564010000000081111561010957600080fd5b82018360208201111561011b57600080fd5b8035906020019184600183028401116401000000008311171561013d57600080fd5b91908080601f016020809104026020016040519081016040528093929190818152602001838380828437600092019190915250929594936020810193503591505064010000000081111561019057600080fd5b8201836020820111156101a257600080fd5b803590602001918460018302840111640100000000831117156101c457600080fd5b91908080601f01602080910402602001604051908101604052809392919081815260200183838082843760009201919091525092955050913592506102cc915050565b60408051918252519081900360200190f35b61023c6004803603604081101561022f57600080fd5b50803590602001356103eb565b005b61023c61048c565b610207610538565b6100a061053e565b61023c61054d565b61023c6004803603608081101561027457600080fd5b508035906020810135906001600160e01b031960408201351690606001356106fc565b61023c600480360360208110156102ad57600080fd5b50356001600160a01b0316610770565b60006102c7610873565b905090565b60006102d6610882565b6001600160a01b03166102e761053e565b6001600160a01b031614610330576040805162461bcd60e51b815260206004820181905260248201526000805160206111f9833981519152604482015290519081900360640190fd5b610338611160565b61034a87306321abc2af60e11b610886565b6040805180820190915260038152621d5c9b60ea1b60208201529091506103799082908763ffffffff6108b116565b6040805180820190915260048152630e0c2e8d60e31b60208201526103a69082908663ffffffff6108b116565b60408051808201909152600581526474696d657360d81b60208201526103d49082908563ffffffff6108e016565b6103df88828861090a565b98975050505050505050565b60008281526005602052604090205482906001600160a01b031633146104425760405162461bcd60e51b81526004018080602001828103825260288152602001806112196028913960400191505060405180910390fd5b60008181526005602052604080822080546001600160a01b03191690555182917f7cc135e0cebb02c3480ae5d74d377283180a2601f8f644edf7987b009316c63a91a25060075550565b610494610882565b6001600160a01b03166104a561053e565b6001600160a01b0316146104ee576040805162461bcd60e51b815260206004820181905260248201526000805160206111f9833981519152604482015290519081900360640190fd5b6006546040516000916001600160a01b0316907f8be0079c531659141344cd1fd0a4f28419497f9722a3daafe3b4186f6b6457e0908390a3600680546001600160a01b0319169055565b60075481565b6006546001600160a01b031690565b610555610882565b6001600160a01b031661056661053e565b6001600160a01b0316146105af576040805162461bcd60e51b815260206004820181905260248201526000805160206111f9833981519152604482015290519081900360640190fd5b60006105b9610873565b604080516370a0823160e01b815230600482015290519192506001600160a01b0383169163a9059cbb91339184916370a08231916024808301926020929190829003018186803b15801561060c57600080fd5b505afa158015610620573d6000803e3d6000fd5b505050506040513d602081101561063657600080fd5b5051604080516001600160e01b031960e086901b1681526001600160a01b03909316600484015260248301919091525160448083019260209291908290030181600087803b15801561068757600080fd5b505af115801561069b573d6000803e3d6000fd5b505050506040513d60208110156106b157600080fd5b50516106f9576040805162461bcd60e51b81526020600482015260126024820152712ab730b13632903a37903a3930b739b332b960711b604482015290519081900360640190fd5b50565b610704610882565b6001600160a01b031661071561053e565b6001600160a01b03161461075e576040805162461bcd60e51b815260206004820181905260248201526000805160206111f9833981519152604482015290519081900360640190fd5b61076a84848484610ae1565b50505050565b610778610882565b6001600160a01b031661078961053e565b6001600160a01b0316146107d2576040805162461bcd60e51b815260206004820181905260248201526000805160206111f9833981519152604482015290519081900360640190fd5b6001600160a01b0381166108175760405162461bcd60e51b81526004018080602001828103825260268152602001806111b06026913960400191505060405180910390fd5b6006546040516001600160a01b038084169216907f8be0079c531659141344cd1fd0a4f28419497f9722a3daafe3b4186f6b6457e090600090a3600680546001600160a01b0319166001600160a01b0392909216919091179055565b6002546001600160a01b031690565b3390565b61088e611160565b610896611160565b6108a88186868663ffffffff610bb916565b95945050505050565b60808301516108c6908363ffffffff610bf616565b60808301516108db908263ffffffff610bf616565b505050565b60808301516108f5908363ffffffff610bf616565b60808301516108db908263ffffffff610c1316565b6004546040805130606090811b60208084019190915260348084018690528451808503909101815260549093018452825192810192909220908601939093526000838152600590915281812080546001600160a01b0319166001600160a01b038816179055905182917fb5e6e01e79f91267dc17b4e6314d5d4d03593d2ceee0fbb452b750bd70ea5af991a26002546001600160a01b0316634000aea085846109b287610c72565b6040518463ffffffff1660e01b815260040180846001600160a01b03166001600160a01b0316815260200183815260200180602001828103825283818151815260200191508051906020019080838360005b83811015610a1c578181015183820152602001610a04565b50505050905090810190601f168015610a495780820380516001836020036101000a031916815260200191505b50945050505050602060405180830381600087803b158015610a6a57600080fd5b505af1158015610a7e573d6000803e3d6000fd5b505050506040513d6020811015610a9457600080fd5b5051610ad15760405162461bcd60e51b81526004018080602001828103825260238152602001806111d66023913960400191505060405180910390fd5b6004805460010190559392505050565b60008481526005602052604080822080546001600160a01b0319811690915590516001600160a01b039091169186917fe1fe3afa0f7f761ff0a8b89086790efd5140d2907ebd5b7ff6bfcb5e075fd4c59190a260408051636ee4d55360e01b815260048101879052602481018690526001600160e01b0319851660448201526064810184905290516001600160a01b03831691636ee4d55391608480830192600092919082900301818387803b158015610b9a57600080fd5b505af1158015610bae573d6000803e3d6000fd5b505050505050505050565b610bc1611160565b610bd18560800151610100610db2565b50509183526001600160a01b031660208301526001600160e01b031916604082015290565b610c038260038351610df2565b6108db828263ffffffff610efc16565b67ffffffffffffffff19811215610c3357610c2e8282610f1d565b610c6e565b67ffffffffffffffff811315610c4d57610c2e8282610f5c565b60008112610c6157610c2e82600083610df2565b610c6e8260018319610df2565b5050565b6060634042994660e01b6000808460000151856020015186604001518760600151600189608001516000015160405160240180896001600160a01b03166001600160a01b03168152602001888152602001878152602001866001600160a01b03166001600160a01b03168152602001856001600160e01b0319166001600160e01b031916815260200184815260200183815260200180602001828103825283818151815260200191508051906020019080838360005b83811015610d40578181015183820152602001610d28565b50505050905090810190601f168015610d6d5780820380516001836020036101000a031916815260200191505b5060408051601f198184030181529190526020810180516001600160e01b03166001600160e01b0319909d169c909c17909b5250989950505050505050505050919050565b610dba611195565b6020820615610dcf5760208206602003820191505b506020808301829052604080518085526000815283019091019052815b92915050565b60178111610e1957610e138360e0600585901b16831763ffffffff610f9716565b506108db565b60ff8111610e4f57610e3c836018611fe0600586901b161763ffffffff610f9716565b50610e138382600163ffffffff610faf16565b61ffff8111610e8657610e73836019611fe0600586901b161763ffffffff610f9716565b50610e138382600263ffffffff610faf16565b63ffffffff8111610ebf57610eac83601a611fe0600586901b161763ffffffff610f9716565b50610e138382600463ffffffff610faf16565b67ffffffffffffffff81116108db57610ee983601b611fe0600586901b161763ffffffff610f9716565b5061076a8382600863ffffffff610faf16565b610f04611195565b610f1683846000015151848551610fd0565b9392505050565b610f2e8260c363ffffffff610f9716565b50610c6e8282600019036040516020018082815260200191505060405160208183030381529060405261107c565b610f6d8260c263ffffffff610f9716565b50610c6e82826040516020018082815260200191505060405160208183030381529060405261107c565b610f9f611195565b610f168384600001515184611089565b610fb7611195565b610fc88485600001515185856110d4565b949350505050565b610fd8611195565b8251821115610fe657600080fd5b8460200151828501111561101057611010856110088760200151878601611132565b600202611149565b60008086518051876020830101935080888701111561102f5787860182525b505050602084015b602084106110565780518252601f199093019260209182019101611037565b51815160001960208690036101000a019081169019919091161790525083949350505050565b610c038260028351610df2565b611091611195565b836020015183106110ad576110ad848560200151600202611149565b8351805160208583010184815350808514156110ca576001810182525b5093949350505050565b6110dc611195565b846020015184830111156110f9576110f985858401600202611149565b60006001836101000a0390508551838682010185831982511617815250805184870111156111275783860181525b509495945050505050565b600081831115611143575081610dec565b50919050565b81516111558383610db2565b5061076a8382610efc565b6040805160a081018252600080825260208201819052918101829052606081019190915260808101611190611195565b905290565b60405180604001604052806060815260200160008152509056fe4f776e61626c653a206e6577206f776e657220697320746865207a65726f2061646472657373756e61626c6520746f207472616e73666572416e6443616c6c20746f206f7261636c654f776e61626c653a2063616c6c6572206973206e6f7420746865206f776e6572536f75726365206d75737420626520746865206f7261636c65206f66207468652072657175657374a26469706673582212200929ad5b782c9ca3367826f86abe43d12aea0cb08bead02dc146635be62a629864736f6c63430006060033",
    "sourcePath": "/Users/grape404/Desktop/Development/sol/LandOracle/contracts/MyContract.sol",
    "compiler": {
        "name": "solc",
        "version": "0.6.6+commit.6c089d02"
    },
    "functionHashes": {
        "cancelRequest(bytes32,uint256,bytes4,uint256)": "ec65d0f8",
        "createRequestTo(address,bytes32,uint256,string,string,int256)": "16ef7f1a",
        "data()": "73d4a13a",
        "fulfill(bytes32,uint256)": "4357855e",
        "getChainlinkToken()": "165d35e1",
        "owner()": "8da5cb5b",
        "renounceOwnership()": "715018a6",
        "transferOwnership(address)": "f2fde38b",
        "withdrawLink()": "8dc654a2"
    },
    "gasEstimates": {
        "creation": {
            "codeDepositCost": "945200",
            "executionCost": "infinite",
            "totalCost": "infinite"
        },
        "external": {
            "cancelRequest(bytes32,uint256,bytes4,uint256)": "infinite",
            "createRequestTo(address,bytes32,uint256,string,string,int256)": "infinite",
            "data()": "998",
            "fulfill(bytes32,uint256)": "infinite",
            "getChainlinkToken()": "1073",
            "owner()": "1059",
            "renounceOwnership()": "infinite",
            "transferOwnership(address)": "infinite",
            "withdrawLink()": "infinite"
        }
    }
}